:020000040800F2
:10000000D0080020BD270008452700084727000822
:10001000492700084B2700084D2700080000000072
:100020000000000000000000000000004F27000852
:10003000512700080000000053270008552700083A
:10004000E1270008E5270008E9270008ED27000858
:10005000F1270008F5270008F9270008FD27000808
:100060000128000805280008592700080928000869
:100070000D28000811280008152800081928000874
:100080001D2800082128000825280008000000007D
:100090000000000000000000000000002928000807
:1000A0002D280008312800083528000839280008C4
:1000B0003D28000841280008452800084928000874
:1000C0004D28000851280008552800085928000824
:1000D0005D2800086128000865280008000000006D
:1000E000692800086D280008712800080000000039
:1000F000000000000000000000000000752800085B
:1001000000000000792800087D28000881280008E8
:1001100000000000000000000000000000000000DF
:1001200085280008892800088D28000891280008E3
:1001300095280008000000000000000000000000FA
:1001400000000000000000000000000099280008E6
:100150009D280008A1280008A5280008A928000853
:10016000AD280008B12800080000000000000000D1
:10017000000000000000000000000000000000007F
:1001800000000000B528000800000000000000008A
:10019000B928000838B5040001D1012032BD002083
:1001A000A06204F15005687820B90021297020462A
:1001B00000F095F90220687000F02DF96268A068DF
:1001C000A1690243E0680243206902436069024377
:1001D00001F40071E0690A430243206A0243A06A05
:1001E000024320680260A169606A090C01F0040101
:1001F0000143206841602068C16921F40061C16148
:100200000020686001206870002032BD2DE9FC47A5
:1002100000F0D3F84FF0010808BF022000F0B980C9
:100220009A4687F8008000F05BF97B78012B09D0B3
:100230006968B1F5827F02BFA9680029042B01D04B
:100240000226A1E0002C1CBFB9F1000FBAF1000F8B
:1002500001D1012698E07B78042B1CBF0521797021
:100260007E60C5F83890A5F83EA0A5F83CA02C63A8
:10027000A5F836A0A5F834A02E646E6429680B6832
:100280005C0603D40C6844F040040C60EB680A9CE4
:100290006968B3F5006F38D1002918BFBAF1010FB2
:1002A00000F0AAF88146E98E002904BFE88F0028F3
:1002B00071D02968886882070BD5E88E002818BF9E
:1002C000B8F1000F05D0286B0288CA60B04600F074
:1002D0006DF829688868C2070CD5E88F50B1C968E5
:1002E000A86B01804FF00108A86B811CA963E88FFF
:1002F000411EE98700F0F4F8A0EB0900A042D2D338
:1003000014F1010FCFD003263EE0002918BFBAF147
:10031000010F00F065F88146E98E002904BFE88FDF
:10032000002838D02968886882070DD5E88E002813
:1003300018BFB8F1000F07D0286B02780A73B046D7
:10034000286B411C00F034F829688868C2070CD576
:10035000E88F50B1C968A86B01704FF00108A86B15
:10036000411CA963E88F411EE98700F0B9F8A0EBB2
:100370000900A04203D314F1010FCDD0C3E7002C34
:10038000CAD1C0E700F022F8012078700020387050
:100390003046BDE8F68721464A46284600F08DF8EB
:1003A0000028EFD0202001267860EDE7286B811C23
:1003B0002963E88E411EE9867047054605F150071E
:1003C0000026387801280C4691467047A86830B955
:1003D00000962868C1680091806800900099704775
:1003E00009D1296B2B680A781A73296B4A1C2A6376
:1003F000E98E4A1EEA86704709D1296B2B680A8864
:10040000DA60296B8A1C2A63E98E4A1EEA867047E5
:1004100090F8510070472068016821F040010160A8
:10042000704700002DE9F041069F05460E469046B4
:100430001C46286881683140B1420CBF0120002071
:10044000404531D014F1010FF3D000F049F8C01B42
:10045000A04201D2002CECD12868416821F0E001D3
:1004600041606868B0F5827F08D1A868B0F5004F98
:1004700018BFB0F5806F01D100F019F8A86AB0F587
:10048000005F09D12868016821F4005101602868E3
:10049000026842F40052026005F1500001214170EF
:1004A00000210170032000E00020BDE8F0812868F1
:1004B000016821F04001016070471CB500920B46B5
:1004C000044600228021FFF7ADFF00F001F816BDC1
:1004D00020B1606D40F020006065032070477047D8
:1004E00001484068704700BF480000202DE9F843EC
:1004F000040017D02078B54EC10741D5B06800F090
:100500000C00042807D0B06800F00C0008280BD1BC
:100510007068410208D53168880331D560680028C9
:1005200040F0B68001204FE16068B0F5803F06D012
:10053000B0F5A02F316807D141F4802131603068D7
:1005400040F48030306006E021F480313160326860
:1005500022F480223260606868B1FFF7C1FF05466F
:100560003168880300F19480FFF7BAFF401B6528CB
:10057000F6D3032028E1FFF7B3FF05463068810377
:1005800040F18680FFF7ACFF401B6528F6D3F0E70B
:10059000FFF7A6FF401B022840F2A780E9E7E068CA
:1005A00070B101213960FFF79BFF05463068810774
:1005B00000F1CB80FFF794FF401B0228F6D9D8E763
:1005C0003860FFF78DFF05463068810763D5FFF778
:1005D00087FF401B0228F7D9CBE70860FFF780FFB1
:1005E0000546706F810775D5FFF77AFF401B02281B
:1005F000F7D9BEE70528306F06D140F00400306718
:10060000306F40F0010005E0400840003067306F77
:1006100020F00400306741F28938A06868B1FFF724
:100620005FFF8146306F810700F19C80FFF758FF24
:10063000A0EB09004045F5D39BE7FFF751FF81464A
:10064000306F810740F18E80FFF74AFFA0EB090071
:100650004045F5D38DE7FFF743FF401B022840F2EA
:10066000968086E7FFF73CFF001B022840F2A78038
:100670007FE700203866FFF733FF044630688101CA
:1006800040F1A180FFF72CFF001B0228F6D970E78C
:1006900020784F4F81071BD5B06810F00C0F09D0A0
:1006A000B06800F00C0008287FF479AF7068410250
:1006B0003FF575AF3168880703D5E06801287FF4FE
:1006C00031AF3168206921F0F80141EAC0013160A1
:1006D000217808070DD560693E4900283FF47DAFB9
:1006E00001220A60FFF7FCFE0546706F81077FF567
:1006F0004FAF217848073AD5306C0025C1000AD4A5
:1007000000950125306C40F080503064306C00F072
:10071000805000900098DFF8C080D8F80010C8051D
:100720001BD4D8F8000040F48070C8F80000FFF730
:10073000D7FE8146D8F80010C8050ED4FFF7D0FECA
:10074000A0EB09000228F5D913E73068216920F0F1
:10075000F80040EAC1003060BAE7A06801287FF4E1
:1007600049AF4DE71DB1306C20F080503064A06976
:1007700048B3B16801F00C0108293FF4D3AE022858
:100780007FF477AF00203866FFF7AAFE0546306891
:1007900081013FF560AFE169206AA26A0143606AA6
:1007A000520841EA8011521EE06A41EA024141EAE0
:1007B0000061716001213966FFF792FE04463068DE
:1007C00081017FF54FAF0020BDE8F2830038024081
:1007D00000004742800E47420070004030B5A1B093
:1007E000C1F3090141EA80210120ADF800108DF824
:1007F000040014461D468DF80240032269460DF19F
:10080000050000F051F92246294602A800F04CF9F3
:10081000A14802691AB1241DA1B201A8904721B0D4
:1008200030BD38B504460D4607E06946284600F05D
:10083000C3F90099204600F096F9284600F08AF99D
:100840000028F2D031BD70B5934C010018BFE061B3
:1008500000F0AEFA04F1200000F079F904F128006C
:1008600000F075F900258C2604F1300016FB05F127
:10087000014404F1200000F080F96D1C052DF3DB2C
:10088000216809B100208847A06810B1BDE8704018
:10089000004770BD804902680A60C268CA60026988
:1008A0000A6182698A618068886070472DE9FF412A
:1008B00004460F4666882088774D00210091C6F3D4
:1008C000090646EA802601A800F041F9B6B209E01F
:1008D00003A905F1280000F066F9039905F120004D
:1008E00000F04BF905F1200000F079F90228EFDB68
:1008F000E268A36861882088D2B2FFF76FFF002FFB
:1009000040F2E93807D054E0009905F1200000F0EA
:1009100034F900200090FFF7E3FD0746FFF7E0FD04
:10092000C01B40455DD205F1280000F013F90028F6
:10093000F4D1694605F1280000F035F9009800F17E
:1009400008021178042917D100F10B0190F88800F2
:100950005278C01E0E2A30D00F2A04D0102A40D060
:100960003E2A31D008E04A88B2423AD162680F2A62
:1009700012D00878002834D105F1200000F0EAF800
:1009800028B105F1280000F0E5F80028BCD1009955
:1009900001A800F0F2F8BCE76269904288BF1046F7
:1009A00060610246206900F07FF800F077F800F0FF
:1009B00024F8002004B0BDE8F081B1F80120B24273
:1009C0000FD1C91CC01EE7E70A7863689A42D3D1E9
:1009D0006269401E904288BF104660610246491C11
:1009E000E0E7009820B1014605F1200000F0BBF8D7
:1009F00000F003F84FF0FF30DCE701A905F1280013
:100A00000FE71CB500200090234C0EE0694604F16E
:100A1000280000F0C8F8E16911B100980830884753
:100A2000009904F1200000F0A8F804F1280000F07B
:100A300091F80028EAD013BD38B5002000900024BA
:100A4000154D05F1200000F085F810BB694605F151
:100A5000200000F0A8F8EA68E2B100988021083090
:100A60009047C1B291B1009981F888000098017A4D
:100A7000042901BF827A90F88800C01E824205D105
:100A8000009905F1280000F078F803E000F006F87E
:100A900000E00124204632BD58000020009905F1F5
:100AA000200000F060B8704762B38B0708D0521E78
:100AB00011F8013B00F8013B00F024808B07F6D1D0
:100AC000830740F0208000BF103A07D330B4B1E86C
:100AD0003810103AA0E83810F9D230BC530724BFC0
:100AE000B1E80810A0E8081044BF51F8043B40F8F2
:100AF000043BD20724BF31F8022B20F8022B44BF5D
:100B00000B7803707047121F17D35B0009D151F89F
:100B1000043B20F8023B1B0C121F20F8023BF6D2CC
:100B20000BE051F8043B00F8013B1B0A20F8023BA4
:100B30001B0C121F00F8013BF3D238BF121D521ECE
:100B400024BF11F8013B00F8013BF8D87047006062
:100B500040607047EFF3108172B6026882420CBFAA
:100B6000012000201CE0EFF3108272B603680B60D6
:100B700048600160086841603EE0EFF3108272B6A1
:100B8000086043684B6041604868016034E0EFF3FF
:100B9000108172B6436802681A6042680068426059
:100BA00081F31088704738B50C46EFF3108572B6A4
:100BB00001682160006807E038B50C46EFF3108546
:100BC00072B6416821604068FFF7E1FF22680021AA
:100BD000116000202168486085F3108831BD01460E
:100BE0000020EFF3108272B60B6801E01B68401C16
:100BF0008B42FBD100E0086082F310887047000050
:100C000080B586B000200090834A8448016841F096
:100C1000010101601021006800F0010000900098BF
:100C2000019100200390029201A97D4800F016F97D
:100C3000012000210222029003910491019201A956
:100C4000784800F00BF9102001900121002002915A
:100C50000390049001A9744800F000F900F05CFAD8
:100C600007B000BD80B510216D4800F0C1F910211A
:100C70006D4800F0BDF902216A4800F0B9F9002082
:100C800002BD10B5674C00220221204600F02DFA6B
:100C9000052000F0B3FA01220221204600F025FAD7
:100CA000052000F0ABFA002010BD2DE9F84185B019
:100CB0000546FF208DF801000F460FF29013DFF874
:100CC0006881D3E9004003A90022C1E9004000F097
:100CD0006BF8052201A903A800F057FA9DF804005B
:100CE0000026022817D19DF808009DF8074054EA15
:100CF000002410D0A7420BDA3C4609E001226946E5
:100D00000DF1010000F041FA9DF80000A855761C95
:100D1000F6B2A642F2DB00F046F8304606B0BDE877
:100D2000F0812DE9F84D0C460FF2281185B00646EA
:100D3000D1E9002302A84FF0FF35C0E900236FF08E
:100D4000010AFFF7CDFB0746DFF8E0B0DFF8D880F7
:100D50000496002200F028F80522694602A800F057
:100D600014FA9DF80000002602280BD19DF801100E
:100D7000A14205D304982246594600F006FA02E043
:100D8000564600E02E4600F00EF8FFF7A9FBC01B08
:100D9000102805D2002EDCD4304606B0BDE8F08D18
:100DA0006FF00206F8E701221021404600F09DB9DD
:100DB00018B587B01E481F491F4C009001911F486D
:100DC0001F49049003911F481F49029006916846ED
:100DD000FFF760FD1021204600F02BFA0FF21D02F4
:100DE0000021204600F01EFA002200210A2000F017
:100DF0004FFA0A2000F069FA08B010BD10B5084C8F
:100E00001021204600F06BF9012804D10020FFF7E3
:100E100013FE0028F4D010BD00001110303802403D
:100E20000008024000040240000002404403002089
:100E3000010C0008650C0008C0040020230D000808
:100E4000AB0C0008830C0008BD1100080B0000006B
:100E5000000000000A000000000000002DE9F84F2B
:100E60004FF0000EA44AA54BDFF894824FF00F0913
:100E700006468A460121DAF8004001FA0EF10C40DC
:100E80008C4240F0AD80DAF80450022D18BF122DCC
:100E90004FEA8E0012D14FEADE0506EB850C00F01A
:100EA0001C05DCF8207009FA05FB27EA0B07DAF8C5
:100EB00010B00BFA05F53D43CCF820504FEA4E0C2C
:100EC000032537689AF804B005FA0CF5ED430BF0EA
:100ED000030B2F400BFA0CFB4BEA07073760DAF8DD
:100EE0000470012F18BF022F03D0112F18BF122F2B
:100EF00013D1B768DAF80CB02F400BFA0CFB4BEAB1
:100F00000707B760776827EA0101DAF80470C7F3CA
:100F1000001707FA0EF739437160F1680D40DAF8EF
:100F2000081001FA0CF12943F160DAF80410C90045
:100F300056D50025009500F00C00D8F8001041F4BB
:100F40008041C8F8001009FA00F7D8F8005005F4FD
:100F50008045009500994FEA9E0153F8215025EAFB
:100F60000707684DAE4208BF002513D0664DAE425C
:100F700008BF01250ED0654DAE4208BF022509D03D
:100F8000634DAE4208BF032504D0624DAE420CBF94
:100F90000425072505FA00F0384343F82100E04313
:100FA0001168DAF804500140ED0348BF2143116095
:100FB0005168DAF804500140AD0348BF2143516045
:100FC0009168DAF804500140ED0248BF2143916076
:100FD000D1680140DAF80400800248BF2143D160A3
:100FE0000EF1010EBEF10F0F7FF644AFBDE8F18F99
:100FF0002DE9F84F82460E4600253F483F4A0096AD
:101000000F210123009C03FA05F63440B44261D15C
:101010004FEA950C4FEA850B52F82C700BF00C0E32
:1010200001FA0EF808EA0709364FBA4508BF00274B
:1010300013D0354FBA4508BF01270ED0334FBA45FC
:1010400008BF022709D0324FBA4508BF032704D092
:10105000304FBA450CBF0427072707FA0EF7B945EA
:1010600012D152F82C7027EA080742F82C70E4439A
:101070000768274007604768274047608768274020
:101080008760C7683C40C46003246F00BC40DAF846
:101090000070E4432740CAF800700BF01C0BEF0807
:1010A0000AEB870701FA0BFBD7F8208028EA0B0B25
:1010B000C7F820B0DAF808702740CAF80870DAF8E4
:1010C000047027EA0606CAF80460DAF80C603440B7
:1010D000CAF80C406D1C0F2D94D9BDE8F18F006942
:1010E000084018BF0120C0B2704781B002B909049E
:1010F000FFE7816101B07047003C014008380140C2
:10110000443802400000024000040240000802404F
:10111000000C024000100240244838B5244D2860DD
:1011200086B0A86D411C0024A96558BB2846FFF76E
:101130006FF938BB009002221E48416941F480518A
:101140004161416901F48051009100990094E021CE
:10115000036843F001030360006800F001000090A1
:1011600000980191052003210491059002920394B7
:1011700001A91148FFF772FE284600F021F808B1D6
:101180006FF00704204607B030BD1CB513464FF47E
:101190008052009200240A4601460548FFF736F8BF
:1011A00008B16FF00504204616BD00000030014074
:1011B000440400203038024000000240FFF790B99C
:1011C0000D4910B5016000244FF4827141608460C4
:1011D0004FF400718161C4600821C16104610A217A
:1011E000C1624461046244628462FEF7D3FF00B1CD
:1011F0000124204610BD00BF0030014038B5044630
:10120000FFF76EF914F1010F054602D0044801788A
:101210006418FFF765F9401BA042FAD331BD00BF47
:10122000480000200346002009B95A607047012099
:10123000704708B901207047016000207047054AD7
:10124000116829B1036813604068002818BF00477F
:1012500070470000143C01400901020081B002D433
:101260002948815405E0294802F00F02104400F893
:10127000041C01B07047264A13684FF6FF010002B4
:101280000B4000F4E06018432249084310607047A7
:1012900038B51F4B1C68C4F30223C3F10704052CA7
:1012A00028BF04241D1D072D34BF0023DB1E01258C
:1012B00005FA04F4641E2140994005FA03F35B1E0D
:1012C0001A401143BDE83440C6E7002807D4012284
:1012D00000F01F01104B8A40400943F8202070475E
:1012E00010B5401EB0F1807F01D3012010BD0B4C22
:1012F00060600F214FF0FF30FFF7AEFF0022A260C9
:1013000007202060002010BD00E400E018ED00E0A0
:101310000CED00E00000FA0500E100E010E000E064
:1013200018B589B08DF800008DF801108DF80220F5
:101330001C46072100F002F900F008F900F013F94B
:10134000032100F039F8002848BFFF200ED49DF893
:10135000040058B90D990C98BDF805202280BDF8FD
:1013600007200280BDF80900088000200AB010BDE7
:1013700078B589B00C468DF8000015461E46072149
:1013800000F0DCF800F0E2F800F0EDF8012100F0E8
:1013900013F8002848BFFF200CD49DF8040048B97A
:1013A000BDF805002080BDF807002880BDF80900C1
:1013B000308000200AB070BDADF80C00069101A885
:1013C000072107900891CDF814D0002103A8FFF75A
:1013D0006DBAFFB591B000F037F828BF422021D296
:1013E00000F02CF890F800E01A9D1E9F1C998CF8D4
:1013F00000E000F030F890F800E08CF800E000F039
:1014000032F800F011F800F085F83F20832100F059
:10141000A1F8F6B2049600F03FF800284CBFFF2078
:101420009DF8000015B0F0BD07A8F1B2761C445439
:10143000F6B2224639463044FFF736BB8DF81C0021
:101440000DF11D0C12A870471B9A1D9C16463119F0
:101450000E3129297047083640788CF801000DF1CB
:101460001F0C13A8704740788CF801008DF82130CC
:101470008DF823208DF8225009A8FFF715BBADF891
:101480000400ADF806100DF1010001210390049154
:101490007047012103900691CDF814D0002101A8D6
:1014A000FFF704BA18B504462246202A8FB028BF99
:1014B000422019D28DF81C400DF11D00FFF7F4FAFF
:1014C00000F03BF83F208E2100F03BF807A80121F7
:1014D0000390641C0691E4B20494FFF7DDFF00283A
:1014E0004CBFFF209DF8000010B010BD00B587B0C4
:1014F00018218DF8010000F021F83F208F21FFF71F
:10150000BEFFFFF7C8FF00284CBFFF209DF800007A
:1015100007B000BDA6191FA807A9F2B211440278AE
:101520000A70B61C42784A7020A8F6B207A9314466
:1015300002780A70B61C42784A70182101A800F09F
:1015400017B8ADF80400ADF806107047182103A8CD
:1015500000F00EB8ADF80400ADF8061007A80121A0
:101560000390069170478A21ADF80E103F20704716
:10157000002200F001B8000000B500BF130096463D
:101580009446103928BFA0E80C50FAD85FEA417C95
:1015900028BF0CC048BF40F8042BC90728BF20F85B
:1015A000022B48BF00F8012B00BD0000B3BBD9B12E
:1015B000B2F5803F7DD2022A1ED98C46B1FBF2F1F2
:1015C00002FB11C31B0443EA1043B3FBF2FC02FB12
:1015D0001C3380B240EA0343B3FBF2F002FB10324B
:1015E00040EA0C4000237047022A05D98446B0FB2C
:1015F000F2F002FB10C270474AB105D100F00102BF
:1016000049085FEA3000704700220023704700F06D
:10161000E5B80B000200002100207047904271EBFA
:10162000030CF6D3B3F5803F2FD2F0B5B3FA83F7AE
:10163000B1FA81F4A7F10F0E3D1B5340CEF1200605
:1016400002FA0EF2F3415340B5F10F0746D80F3CB2
:101650002C444140C4F12006A040F1414140B1FB7F
:10166000F3F603FB1611A2FB0645001BA94102D2AB
:10167000761E8018594180EA010221FA0EF362FABF
:101680000EF200215A403046F0BD30B4B1FBF3FCFD
:1016900003FB1C11A2FB0C45001BA94103D2ACF1BA
:1016A000010C8018594130BC02460B4660460021AF
:1016B0007047B2F1807F65D3F0B5B2FA82F7B1FA24
:1016C00081F4C7F10F063D1B22FA06F307F1110E54
:1016D000F24120355A40B5F10F07B8D94140C4F165
:1016E0002006A040F1414140B1FBF3FC03FB1C117B
:1016F000A2FB0C45001BA94103D2BCF1010C8018D0
:1017000059410F2F12D30F3FC90341EA5041B1FB9A
:10171000F3F603FB1611A2FB0645D4EBC030A9413A
:1017200002D2761E8018594146EACC3C07B34140AC
:10173000C7F12006B840F1414140B1FBF3F603FB8D
:101740001611A2FB0645001BA94102D2761E801885
:10175000594180EA010221FA0EF3C7F1200462FA2E
:101760000EF20CFA07F05A402CFA04F13043F0BDA7
:1017700080EA010221FA0EF3002162FA0EF26046BD
:101780005A40F0BD8C46B1FBF2F102FB11C31B02C3
:1017900043EA1063B3FBF2FC02FB1C331B024CEA6E
:1017A000002043EA1063B3FBF2FC02FB1C331B0274
:1017B0004CEA002043EA1063B3FBF2FC02FB1C334B
:1017C0001B024CEA002043EA1063B3FBF2FC02FB6D
:1017D0001C324CEA002000237047000070470000D4
:1017E00038B5040001D1012032BD00F022F808B95B
:1017F00000F023F800F013F800F024F8FFE741614F
:1018000000F001F832BD2068C16841F40051C160A8
:101810000020686020206870A87000207047242095
:1018200068702068C16821F40051C160204600F052
:1018300013B804F1380568787047002129702046F4
:1018400000F0CBB82068016921F490410161206863
:10185000416921F02A0170472DE9F04704466425CB
:1018600021680A69E06822F4405202430A6119269D
:10187000CA6848480240A068024320690243606980
:101880000243E0690243CA604A69A06922F44072D7
:1018900002434A61E3694048404AB3F5004F3BD1F7
:1018A000914218BF814210D100F025F9074600F09F
:1018B00022F9804600F01FF9814600F01CF906FB72
:1018C00009F9824600F017F90FE000F00CF907461D
:1018D00000F009F9804600F006F9814600F003F9AE
:1018E00006FB09F9824600F0FEF86168490000F045
:1018F00057F8DB003233B3FBF5F35B00B2FBF5F2D4
:1019000003F4F87300F05AF8ED0032356420B5FBAB
:10191000F0F000F0070037E0914218BF81420ED18D
:1019200000F0E9F8074600F0E6F8804600F0E3F83A
:10193000814600F0E0F8824600F0DDF80DE000F0AE
:10194000D2F8074600F0CFF8804600F0CCF8814688
:1019500000F0C9F8824600F0C6F806FB09F9616894
:10196000890000F01DF81B013233B3FBF5F3B2FB25
:10197000F5F203F0F00300F021F82D013235642078
:10198000B5FBF0F000F00F002168C3188B60BDE8D4
:10199000F0870000F369FFFF0014014000100140D0
:1019A0007743B7FBF1F206FB08F7B7FBF1F3B9FB9E
:1019B000F1F7B7FBF5F705FB1733704703EB02139D
:1019C00006FB0AF74643B7FBF1F2B6FBF1F06421E0
:1019D000B0FBF1F005FB1025704770472DE9F84387
:1019E00004000F4677D0494E306800F00F00B8422F
:1019F00002D200F072F86ED12068454D810712D5F1
:101A0000400703D5A86840F4E050A8602178080793
:101A100003D5A86840F46040A860A968A06821F0D8
:101A2000F0010143A9602078C1074CD56068012806
:101A300002D129688A0305E0022818BF032803D1D0
:101A400029688A0103D446E02A68910743D5A9682A
:101A5000890840EA8100A86041F28939FEF740FD1B
:101A60008046A868616800F00C00B0EB810F2AD0B6
:101A7000FEF736FDA0EB08004845F2D3032020E036
:101A80002078410705D5A968E06821F4E0510143B9
:101A9000A9602078010706D5A868216920F4604074
:101AA00040EAC100A86000F03DF8AA681949C2F3F5
:101AB0000312895C184AC8401060002000F05EF8EC
:101AC0000020BDE8F283306800F00F008742D7D2D3
:101AD00000F003F8D4D00120F3E73770316801F04B
:101AE0000F01B94270470C480C4A006813680C4952
:101AF000C3F3822206E00848084A006813680849D0
:101B0000C3F34232895CC84070470000003C024089
:101B100000380240502600085400002008380240D7
:101B2000D827000818B5124C606800F00C00042893
:101B300002D0082802D019E00E4812BD0023226806
:101B4000206841022068C0F388104CBF09490A4947
:101B500002F03F02A1FB0001FFF728FD2168C1F35D
:101B60000141491C4900B0FBF1F012BD024812BD11
:101B70000438024040787D010024F40038B50D4D52
:101B80000D4A297804464FF47A70B0FBF1F11068E1
:101B9000B0FBF1F0FFF7A4FB50B9102C08D20022E3
:101BA00021464FF0FF30FFF773FBAC60002032BDE1
:101BB000012032BD480000205400002080B500F014
:101BC000D9F800F016F800F066F85B485B49016050
:101BD000002141607F218160FF21C16000210161FE
:101BE0004161816100F0E0F800F06CF900F0BAF9B1
:101BF000FCE700B597B006A83021FFF7B9FC00F06C
:101C0000ADF812A800F0ABF8002000904C48016835
:101C100041F0805101600021006800F08050009088
:101C20000098484800910A21026822F4404242F498
:101C3000004202600122006800F4404000900098D9
:101C4000069110200A90002102200C900D9108208E
:101C50000E90602104201090119009920B920F9128
:101C600006A8FEF743FC0F200221019002910020FC
:101C70004FF48051039004910590012101A8FFF7D2
:101C8000ADFE022012904FF40071159112A800F0E1
:101C900081F917B000BD38B586B000F05FF80024B8
:101CA00029482A4D00940168294C41F00101016046
:101CB000026802F00102009200220099009203687B
:101CC00043F004030360016801F0040100910099EE
:101CD00000921021036843F002030360006800F0E3
:101CE0000200009000982846FFF7FFF90022022129
:101CF0002046FFF7FAF9102000F034F82846FFF7E5
:101D0000ADF810200190002012490291039001A922
:101D10001148FFF7A3F8022000F024F82046FFF74F
:101D20009DF8002200210A20FFF7B2FA0A20FFF7EF
:101D3000CCFA07B030BD0000A0040020002800400D
:101D4000403802400070004030380240000002403D
:101D500000040240000011100008024001A81421F4
:101D6000FFF706BC0190012100200291039004902E
:101D700001A9704780B50B48016841F4007101600A
:101D8000026842F480620260016841F4807101607F
:101D90000320FFF770FA0020FFF7F0FE00F09AF939
:101DA000002002BD003C024038B504002CD0607F0A
:101DB00020B900212177204600F0A6F900F036F87E
:101DC000FF25E8B92168DFF890008A6802408A6040
:101DD00021688A68636820690343606903431A4382
:101DE0008A602168E068086120680169A26841EAA8
:101DF0000241016100F024F808D400F02AF828B16B
:101E00002068456204216177012032BD2068016CA1
:101E100021F48021016421680A6CA06902430A64EC
:101E20000121206845626177002032BD0220607781
:101E3000CA2021684862532022685062204626E06A
:101E40002068C16821F08001C1602068816888062F
:101E50007047204602E00000BFFF8FFF70B50446C8
:101E600040F2E9362068C16821F0A001C160FEF7A8
:101E700037FB05462068C168880606D4FEF730FBAC
:101E8000401BB042F6D3032070BD002070BD70B57A
:101E900004462068C1684A0612D44FF0FF32C2607F
:101EA00040F2E936FEF71CFB05462068C16848068B
:101EB00006D4FEF715FB401BB042F6D3032070BDDD
:101EC000002070BD002018B50FF2C00287B0D2E923
:101ED000003405A9C1E9003400F024F900212948A3
:101EE000FEF7B1FC04A902A800F078F900F09DF912
:101EF0006420FFF783F99DF8080000243128A8BF6B
:101F0000012405AA0621002000F028FA002800D0AC
:101F100000BF00F074FA002800D000BF64B10DF1DA
:101F20000A0003A9019000910DF10E030722002180
:101F30000120FFF7F5F907E00DF10A0303AA0DF1FF
:101F40000E010120FFF714FA002800D000BF042181
:101F5000012000F035FA002800D000BF00F072FA2E
:101F600008B010BD80B500F004F8BDE80140FEF7F0
:101F700048BD0548016841F00401016001200121CC
:101F800000F024BBA70A000800700040123400E1F2
:101F900080030000F8B50446474D207810F0050F87
:101FA0003ED0464E00203060FEF79AFA0746286879
:101FB00001012AD5FEF794FAC01B0228F7D90320A5
:101FC000F2BDFEF78DFA801B022826D9F7E7FEF74F
:101FD00087FA801B022839D9F1E7FEF781FA801BC6
:101FE000B84250D3EBE7A86820F4F810A860286F37
:101FF000E168C1F30B01084328672078010702D587
:10200000207C2F4908600020F2BDA168606800F0C4
:102010004BF83060FEF764FA064628680101D0D517
:1020200021788807E9D500200090296C254F41F0E0
:1020300080512964286C00F0805000900098396825
:1020400041F480713960FEF74BFA06463868C105E5
:10205000BDD5286F10F440701EBFE16801F44071D7
:10206000884213D0286F184901220A6020F440707A
:1020700000220A602867286FC10707D5FEF730FAEB
:10208000064641F28937286F8107A6D5E16801F439
:102090004070B0F5407FA6D1AA680C4822F4F8122F
:1020A00001401143A960A2E7090741EA80110848ED
:1020B000016001207047000000380240680047427C
:1020C000E011474200700040400E4742FFFCFF0F06
:1020D0008438024081B00020009000220E48416800
:1020E00041F480414160416801F4804100910099D0
:1020F0000092036843F080530360006800F0805052
:102100000090009801B0704700680449884202D1ED
:10211000034A012111607047403802400028004006
:102120003C0E474270B50024022886B028BF6FF0ED
:10213000010433D285011B4E06EB800006F1080234
:1021400041681948515100940222416941F010013F
:102150004161416901F010010091009900944FF430
:10216000C061036843F001030360006800F00100F0
:102170000090009801910120039003210720049111
:102180000590029201A90948FEF768FE06F10802CF
:10219000501900F00DF808B16FF00304204606B0A6
:1021A00070BD0000000000203038024000000240F6
:1021B000094910B5016000244FF4E13141608460A9
:1021C0000C214161C46004618461C461FFF708FBB4
:1021D00000B10124204610BD001001403EB5054667
:1021E00001A800900C460DF10A0302AA0DF10601A8
:1021F0000DF1090000F02CF8C1B2A1B9BDF806102C
:10220000090A2970BDF8061009022180BDF80420D2
:102210001206120F41EA02112180BDF8042002F0DB
:102220000F0211432180C0B23EBD00B587B000F05F
:1022300075F803200121ADF80400ADF8060000F0A8
:1022400062F800284CBFFF209DF8000007B000BDD9
:10225000F0B589B004460D4616461F4600F021F839
:1022600000F060F80420012100F060F8002848BF69
:10227000FF2013D49DF8000080B90E989DF801103E
:102280002170BDF8021029809DF804103170BDF84E
:1022900005103980BDF807100180002009B0F0BD9D
:1022A000044609216846FFF763B930B58FB000F0E6
:1022B00022F88DF81C40202CA8BF1F2400F015F830
:1022C00000F02CF8092100F025F82021ADF80400D9
:1022D000049107A80121039000F015F800284CBFD5
:1022E000FF209DF800000FB030BD224629460DF1B9
:1022F0001D00FEF7D9BB04460D46202107A8FFF7B5
:1023000037B9ADF804000691CDF814D0002101A82A
:10231000FEF7CCBAADF8061008207047182101A8C6
:10232000FFF726B9182103A8FFF722B9ADF80C0072
:10233000ADF80E1000200921059006900891CDF807
:102340001CD0002103A8FEF7B1BAADF80400069135
:10235000CDF814D0002101A8FEF7A8BA18B50C4694
:102360001146A21C812AA7B0A8BF422022DA8DF80C
:102370001C008DF81D4022460DF11E00FEF794FB57
:1023800000F01AF83F200C21ADF80400ADF806105B
:1023900007A801210390A41C0691E4B20494CDF88F
:1023A00014D0002101A8FEF781FA00284CBFFF20BD
:1023B0009DF8000028B010BD182101A8FFF7D8B87B
:1023C00000B587B08DF802008DF8031001A8182120
:1023D000FFF7CEF80F21ADF806103F200221ADF82F
:1023E000040004910DF1020001210390FFF7AFFFFB
:1023F00000284CBFFF209DF8000007B000BD00B5CD
:1024000087B000F012F840F20111ADF806103F203D
:102410000121ADF80400069100F00EF800284CBF31
:10242000FF209DF8000007B000BD182101A8FFF7AC
:102430009FB80691E4B20494CDF814D0002101A80D
:10244000FEF734BAF8B50FF244110FF24C1691E8CA
:102450001C0088B005A803AD80E81C00D6E9007018
:10246000C5E900700FF2401191E81C00684605AD07
:1024700080E81C0003A802900195684600F002F86D
:1024800009B0F0BD38B5044688B000210020FFF740
:102490000CFF00F069F8010064D10A20FFF726F86C
:1024A00001005FD102A80FF20C111822FEF70CFBFD
:1024B00002A8A178417161680A78827161684A78DE
:1024C000C27161688A7802726168CA784272616812
:1024D0000A798272606841798DF813106068817999
:1024E0008DF814106068C1798DF815106068017A54
:1024F0008DF816106068417A8DF81710A068017881
:102500008DF81810A06841788DF81910A0688178AE
:102510008DF81A10A068C1788DF81B10A068017999
:102520008DF81C10A0680FF27C04417925688DF8A5
:102530001D1001A80FF268010A680260009502A947
:102540001820FEF7AFFF01000CD101A90420FEF70F
:10255000A9FF010006D169460320FEF7A3FF010091
:1025600008BF002009B030BD00220692059200206D
:102570000023029201920490039300904FF4805242
:102580004FF40061FEF725BF000000007777772E3B
:1025900073742E636F6D00000000000000010000E6
:1025A0000303AAFE02010600E803EA00000000009F
:1025B000000000001716AAFE000000000000000046
:1025C0000000000000000000000000000A4A13683C
:1025D0009B0840EA8300106001290848026842F025
:1025E000040202600FBF30BF40BF20BF20BF0168A0
:1025F00021F00401016070470070004010ED00E020
:102600000E48016841F47001016000220C4908681D
:1026100040F0010008608A600A480A6802400A60C7
:10262000002209484860086820F480200860CA60D9
:102630004FF00060054908607047000088ED00E039
:1026400000380240FFFFF6FE1030002408ED00E0E5
:102650000000000000000000010203040607080952
:1026600019E050F8042BD30744BFA9F101039A18CD
:10267000091F0023042942F8043BF9D25FEA817C58
:10268000134604D54FF0000CA2F800C09B1CC907EC
:1026900044BF0021197050F8041B0029E1D1704794
:1026A00030B5016884684218416802EB5103C907DC
:1026B0000BD54C4409E012F9011B12F8015B00290B
:1026C00004F8015B05D5491CF9D19A42F3D10C30CD
:1026D00030BD491EF1D5F8E710B5074979441831E6
:1026E000064C7C44163404E00A68081D11448847EF
:1026F0000146A142F8D110BD2C00000048000000A6
:102700004EF68851CEF20001086840F4700008606F
:10271000BFF34F8FBFF36F8F4FF00070E1EE100AE1
:10272000704700003DFFFFFF7404000058000020C8
:10273000000000006DFFFFFF840100002800000082
:10274000000000207047FEE7FEE7FEE7FEE7704767
:102750007047704700F006B80148FEF770BD0000F2
:10276000C00400200248416802788918416070471F
:102770004800002000F00DF8002801D0FFF7ACFF62
:10278000AFF300800020AFF30080FFF717FA00F0EE
:1027900002F80120704700F001B8000007463846F3
:1027A00000F002F8FBE7000080B5AFF30080024ABA
:1027B00011001820ABBEFBE726000200014880474D
:1027C0000148004701260008CD270008AFF300802C
:1027D000FFF796FFFFF7CEFF0000000001020304A1
:1027E000FFF7FEBFFFF7FEBFFFF7FEBFFFF7FEBF1D
:1027F000FFF7FEBFFFF7FEBFFFF7FEBFFFF7FEBF0D
:10280000FFF7FEBFFFF7FEBFFFF7FEBFFFF7FEBFFC
:10281000FFF7FEBFFFF7FEBFFFF7FEBFFFF7FEBFEC
:10282000FFF7FEBFFFF7FEBFFFF7FEBFFFF7FEBFDC
:10283000FFF7FEBFFFF7FEBFFFF7FEBFFFF7FEBFCC
:10284000FFF7FEBFFFF7FEBFFFF7FEBFFFF7FEBFBC
:10285000FFF7FEBFFFF7FEBFFFF7FEBFFFF7FEBFAC
:10286000FFF7FEBFFFF7FEBFFFF7FEBFFFF7FEBF9C
:10287000FFF7FEBFFFF7FEBFFFF7FEBFFFF7FEBF8C
:10288000FFF7FEBFFFF7FEBFFFF7FEBFFFF7FEBF7C
:10289000FFF7FEBFFFF7FEBFFFF7FEBFFFF7FEBF6C
:1028A000FFF7FEBFFFF7FEBFFFF7FEBFFFF7FEBF5C
:1028B000FFF7FEBFFFF7FEBFFFF7FEBFFB000210F2
:1028C0000140C0000001F9000010FC000224F400E7
:04000005080027CDFB
:00000001FF
